{
  "_format": "hh-sol-artifact-1",
  "contractName": "NFTFactory",
  "sourceName": "contracts/NFTFactory.sol",
  "abi": [
    {
      "inputs": [
        {
          "internalType": "address",
          "name": "_collectionDropImplementation",
          "type": "address"
        },
        {
          "internalType": "address",
          "name": "_editionDropImplementation",
          "type": "address"
        }
      ],
      "stateMutability": "nonpayable",
      "type": "constructor"
    },
    {
      "inputs": [],
      "name": "FailedDeployment",
      "type": "error"
    },
    {
      "inputs": [
        {
          "internalType": "uint256",
          "name": "balance",
          "type": "uint256"
        },
        {
          "internalType": "uint256",
          "name": "needed",
          "type": "uint256"
        }
      ],
      "name": "InsufficientBalance",
      "type": "error"
    },
    {
      "anonymous": false,
      "inputs": [
        {
          "indexed": true,
          "internalType": "address",
          "name": "contractAddress",
          "type": "address"
        },
        {
          "indexed": false,
          "internalType": "string",
          "name": "name",
          "type": "string"
        },
        {
          "indexed": false,
          "internalType": "string",
          "name": "symbol",
          "type": "string"
        },
        {
          "indexed": true,
          "internalType": "address",
          "name": "owner",
          "type": "address"
        }
      ],
      "name": "CollectionDropDeployed",
      "type": "event"
    },
    {
      "anonymous": false,
      "inputs": [
        {
          "indexed": true,
          "internalType": "address",
          "name": "contractAddress",
          "type": "address"
        },
        {
          "indexed": false,
          "internalType": "string",
          "name": "uri",
          "type": "string"
        },
        {
          "indexed": true,
          "internalType": "address",
          "name": "owner",
          "type": "address"
        }
      ],
      "name": "EditionDropDeployed",
      "type": "event"
    },
    {
      "inputs": [],
      "name": "collectionDropImplementation",
      "outputs": [
        {
          "internalType": "address",
          "name": "",
          "type": "address"
        }
      ],
      "stateMutability": "view",
      "type": "function"
    },
    {
      "inputs": [
        {
          "internalType": "string",
          "name": "name",
          "type": "string"
        },
        {
          "internalType": "string",
          "name": "symbol",
          "type": "string"
        },
        {
          "internalType": "address",
          "name": "owner",
          "type": "address"
        }
      ],
      "name": "createCollectionDrop",
      "outputs": [],
      "stateMutability": "nonpayable",
      "type": "function"
    },
    {
      "inputs": [
        {
          "internalType": "string",
          "name": "uri",
          "type": "string"
        },
        {
          "internalType": "address",
          "name": "owner",
          "type": "address"
        }
      ],
      "name": "createEditionDrop",
      "outputs": [],
      "stateMutability": "nonpayable",
      "type": "function"
    },
    {
      "inputs": [],
      "name": "editionDropImplementation",
      "outputs": [
        {
          "internalType": "address",
          "name": "",
          "type": "address"
        }
      ],
      "stateMutability": "view",
      "type": "function"
    },
    {
      "inputs": [],
      "name": "getCollectionContracts",
      "outputs": [
        {
          "internalType": "address[]",
          "name": "",
          "type": "address[]"
        }
      ],
      "stateMutability": "view",
      "type": "function"
    },
    {
      "inputs": [],
      "name": "getEditionContracts",
      "outputs": [
        {
          "internalType": "address[]",
          "name": "",
          "type": "address[]"
        }
      ],
      "stateMutability": "view",
      "type": "function"
    }
  ],
  "bytecode": "0x60c060405234801561001057600080fd5b50604051610d3f380380610d3f83398181016040528101906100329190610104565b8173ffffffffffffffffffffffffffffffffffffffff1660808173ffffffffffffffffffffffffffffffffffffffff16815250508073ffffffffffffffffffffffffffffffffffffffff1660a08173ffffffffffffffffffffffffffffffffffffffff16815250505050610144565b600080fd5b600073ffffffffffffffffffffffffffffffffffffffff82169050919050565b60006100d1826100a6565b9050919050565b6100e1816100c6565b81146100ec57600080fd5b50565b6000815190506100fe816100d8565b92915050565b6000806040838503121561011b5761011a6100a1565b5b6000610129858286016100ef565b925050602061013a858286016100ef565b9150509250929050565b60805160a051610bc86101776000396000818161014201526102a4015260008181610119015261035b0152610bc86000f3fe608060405234801561001057600080fd5b50600436106100625760003560e01c80633feb0e8d1461006757806342d648e314610085578063dd40bb62146100a1578063e3fa9df8146100bf578063e585bcd5146100dd578063f323b896146100f9575b600080fd5b61006f610117565b60405161007c919061069b565b60405180910390f35b61009f600480360381019061009a919061083c565b61013b565b005b6100a96102a2565b6040516100b6919061069b565b60405180910390f35b6100c76102c6565b6040516100d49190610956565b60405180910390f35b6100f760048036038101906100f29190610978565b610354565b005b6101016104c0565b60405161010e9190610956565b60405180910390f35b7f000000000000000000000000000000000000000000000000000000000000000081565b60006101667f000000000000000000000000000000000000000000000000000000000000000061054e565b90508073ffffffffffffffffffffffffffffffffffffffff16637ab4339d84846040518363ffffffff1660e01b81526004016101a3929190610a82565b600060405180830381600087803b1580156101bd57600080fd5b505af11580156101d1573d6000803e3d6000fd5b505050506001819080600181540180825580915050600190039060005260206000200160009091909190916101000a81548173ffffffffffffffffffffffffffffffffffffffff021916908373ffffffffffffffffffffffffffffffffffffffff1602179055508173ffffffffffffffffffffffffffffffffffffffff168173ffffffffffffffffffffffffffffffffffffffff167f6dc85245364361a3417062b03ad416cbd908d1ac5d9ef4a123faedf2bfcfd055856040516102959190610ab2565b60405180910390a3505050565b7f000000000000000000000000000000000000000000000000000000000000000081565b6060600080548060200260200160405190810160405280929190818152602001828054801561034a57602002820191906000526020600020905b8160009054906101000a900473ffffffffffffffffffffffffffffffffffffffff1673ffffffffffffffffffffffffffffffffffffffff1681526020019060010190808311610300575b5050505050905090565b600061037f7f000000000000000000000000000000000000000000000000000000000000000061054e565b90508073ffffffffffffffffffffffffffffffffffffffff1663077f224a8585856040518463ffffffff1660e01b81526004016103be93929190610ad4565b600060405180830381600087803b1580156103d857600080fd5b505af11580156103ec573d6000803e3d6000fd5b505050506000819080600181540180825580915050600190039060005260206000200160009091909190916101000a81548173ffffffffffffffffffffffffffffffffffffffff021916908373ffffffffffffffffffffffffffffffffffffffff1602179055508173ffffffffffffffffffffffffffffffffffffffff168173ffffffffffffffffffffffffffffffffffffffff167f7c8df6f7372bc8af86e2ff1c2b0aceb2f8717cca6a7a996f45f60276f878ab4086866040516104b2929190610b19565b60405180910390a350505050565b6060600180548060200260200160405190810160405280929190818152602001828054801561054457602002820191906000526020600020905b8160009054906101000a900473ffffffffffffffffffffffffffffffffffffffff1673ffffffffffffffffffffffffffffffffffffffff16815260200190600101908083116104fa575b5050505050905090565b600061055b826000610562565b9050919050565b6000814710156105ab5747826040517fcf4791810000000000000000000000000000000000000000000000000000000081526004016105a2929190610b69565b60405180910390fd5b763d602d80600a3d3981f3363d3d373d3d3d363d730000008360601b60e81c176000526e5af43d82803e903d91602b57fd5bf38360781b176020526037600983f09050600073ffffffffffffffffffffffffffffffffffffffff168173ffffffffffffffffffffffffffffffffffffffff1603610654576040517fb06ebf3d00000000000000000000000000000000000000000000000000000000815260040160405180910390fd5b92915050565b600073ffffffffffffffffffffffffffffffffffffffff82169050919050565b60006106858261065a565b9050919050565b6106958161067a565b82525050565b60006020820190506106b0600083018461068c565b92915050565b6000604051905090565b600080fd5b600080fd5b600080fd5b600080fd5b6000601f19601f8301169050919050565b7f4e487b7100000000000000000000000000000000000000000000000000000000600052604160045260246000fd5b61071d826106d4565b810181811067ffffffffffffffff8211171561073c5761073b6106e5565b5b80604052505050565b600061074f6106b6565b905061075b8282610714565b919050565b600067ffffffffffffffff82111561077b5761077a6106e5565b5b610784826106d4565b9050602081019050919050565b82818337600083830152505050565b60006107b36107ae84610760565b610745565b9050828152602081018484840111156107cf576107ce6106cf565b5b6107da848285610791565b509392505050565b600082601f8301126107f7576107f66106ca565b5b81356108078482602086016107a0565b91505092915050565b6108198161067a565b811461082457600080fd5b50565b60008135905061083681610810565b92915050565b60008060408385031215610853576108526106c0565b5b600083013567ffffffffffffffff811115610871576108706106c5565b5b61087d858286016107e2565b925050602061088e85828601610827565b9150509250929050565b600081519050919050565b600082825260208201905092915050565b6000819050602082019050919050565b6108cd8161067a565b82525050565b60006108df83836108c4565b60208301905092915050565b6000602082019050919050565b600061090382610898565b61090d81856108a3565b9350610918836108b4565b8060005b8381101561094957815161093088826108d3565b975061093b836108eb565b92505060018101905061091c565b5085935050505092915050565b6000602082019050818103600083015261097081846108f8565b905092915050565b600080600060608486031215610991576109906106c0565b5b600084013567ffffffffffffffff8111156109af576109ae6106c5565b5b6109bb868287016107e2565b935050602084013567ffffffffffffffff8111156109dc576109db6106c5565b5b6109e8868287016107e2565b92505060406109f986828701610827565b9150509250925092565b600081519050919050565b600082825260208201905092915050565b60005b83811015610a3d578082015181840152602081019050610a22565b60008484015250505050565b6000610a5482610a03565b610a5e8185610a0e565b9350610a6e818560208601610a1f565b610a77816106d4565b840191505092915050565b60006040820190508181036000830152610a9c8185610a49565b9050610aab602083018461068c565b9392505050565b60006020820190508181036000830152610acc8184610a49565b905092915050565b60006060820190508181036000830152610aee8186610a49565b90508181036020830152610b028185610a49565b9050610b11604083018461068c565b949350505050565b60006040820190508181036000830152610b338185610a49565b90508181036020830152610b478184610a49565b90509392505050565b6000819050919050565b610b6381610b50565b82525050565b6000604082019050610b7e6000830185610b5a565b610b8b6020830184610b5a565b939250505056fea2646970667358221220b25fce66a8035e970c0f3d5ebc4d24003ce33b4637d2c9b3d65950d979c7945264736f6c63430008180033",
  "linkReferences": {},
  "deployedLinkReferences": {}
}